:020000042001D9
:100000009711FF5F9381812C9702000093828201F8
:100010007390523093021000638402007350107C7E
:10002000970200009382C211739052301701FFDFD4
:10003000130141FD63140100138181D5732540F143
:10004000814213030040137101FF6385A2001A91DE
:100050008502D5BF970000009380200863830000CD
:100060008290732540F181450146CD209700FFDF46
:10007000938040F96383000082909702000093828E
:10008000C2007390523003230000F5BF000000004F
:100090008280A14673B306309302400063C55500C9
:1000A0001376350011CA230005000505FD15E34749
:1000B000B0FE731003308280232005001105F11576
:1000C000E34EB0FC73100330828023200300110341
:1000D000E34D73FE828006849702FFDF938282F2F3
:1000E000638C02049702FFDF9382C2F1F32740F191
:1000F000A14673B006300A839703FFDF93838330F2
:100100008A9363037300D137639857021703FF5F25
:10011000130343EF9713FF5F9383C3A46303730039
:100120006D371703FFE71303E3ED9703FFE79383AF
:1001300063ED63037300513FA2808280F322203479
:1001400073231034F3233034D5BF82800684971193
:10015000FF5F9381A11793020000631B550C975218
:1001600000009382226C1703FF5F1303A3E99383BC
:100170008189638C6200635A730003A502009102B7
:100180002320A3001103E34A73FE97120000938219
:1001900062E71703FFE71303E3E69703FFE79383A1
:1001A00063E6638C6200635A730003A50200910248
:1001B0002320A3001103E34A73FE0F1000009712DF
:1001C0000000938222E41703FF5F1303A3E3970366
:1001D000FF5F938323E3638C6200635A730003A57C
:1001E000020091022320A3001103E34A73FE0F10C3
:1001F0000000138381899383019563577300232043
:1002000003001103E34D73FE1382818911C202962C
:1002100017550000130585CDEF407049EF40505051
:10022000175500001305455EEF407048EF50605DC4
:10023000293FFD5673B0463073B04634F327103073
:10024000372704007D8F09C773B0363073B026306E
:10025000370704007D8F19C373B0061837070100F4
:1002600013078702F98F89CBF32700300967D98FED
:100270007390073073503000F32710303707200099
:10028000F98F99C7F327003093E707207390073061
:100290000545971500009385A5C5171600001306A0
:1002A00066C53120EF40D041A2808280828041111A
:1002B00006C2F32240F1130300006385620073005D
:0E02C0005010F5BFEF00D053924041018280F4
:0C02D000E8020120DC020120FC020120F9
:1002DC0037050080130505096F305022B725F4004F
:1002EC003705008093850540130505096F407001A3
:1002FC00F1653715008093850520130585A86F409F
:02030C00D0110E
:10031000436F646573203078253032782D3078252E
:1003200030327800493243206E6F74206176616903
:100330006C61626C6520000048656C6C6F20776FA3
:10034000726C642E2E2E0000206920002053694616
:1003500069766521000000000000000040000000F8
:1003600014000000540000006572726F723A204958
:100370003243206E6F7420617661696C61626C65D6
:10038000200000000000000000000000000000004D
:10039000000000000000000000000000000000005D
:1003A000000000000000000000000000000000004D
:1003B000000000000000000000000000000000003D
:1003C000000000000000000000000000000000002D
:1003D000000000000000000000000000000000001D
:1003E00000000000232D302B20000000686C4C0022
:1003F000656667454647000030313233343536375D
:100400003839414243444546000000003031323320
:100410003435363738396162636465660000000040
:100420003827012012270120FA26012000000000B1
:100430000000000028290120462901201E28012053
:10044000F6260120D42701208A2701200000000081
:10045000000000000000000000000000000000009C
:10046000000000000000000000000000A42801209F
:10047000CE26012000000000000000000000000067
:1004800000000000FE2A0120102B0120322B012049
:10049000542C0120642B01206A2B01203A2D0120CD
:1004A0006E2B0120722B0120A22B0120D22B0120C8
:1004B000022C01200E2D0120182C01202A2C0120B5
:1004C000302C0120382C0120B02C0120402D01209F
:1004D000783601200000000000000000000000004D
:1004E00000000000B036012000000000F4370120B9
:1004F000F8370120000000000000000000000000AC
:1005000000000000000000000000000000000000EB
:1005100000000000FA2A0120000000000000000096
:10052000000000000000000000000000763A0120FA
:1005300000000000000000000000000000000000BB
:1005400000000000000000004A3801200000000008
:10055000463B0120863B0120000000000000000017
:10056000123A01208C39012022380120FC37012069
:10057000000000000000000000000000000000007B
:10058000C63B0120263C0120A83901202A3A01203F
:10059000083D0120583D0120163E012001000000C9
:1005A00020000000001BB70000366E0101000000B3
:1005B0001F000000030000003F00000001000000D9
:1005C0002000000000366E01006CDC020300000019
:1005D0001F000000020000003F00000001000000BA
:1005E00010000000808D5B00001BB70000000000C1
:1005F0001F000000030000003F0000000100000099
:1006000010000000001BB70000366E010100000062
:100610001F000000020000003F0000000100000079
:100620001000000000366E01006CDC0203000000C8
:100630001F000000020000001F0000000100000079
:1006400008000000808D5B00001BB7000000000068
:100650001F000000030000001F0000000100000058
:1006600008000000001BB70000366E01010000000A
:100670001F000000020000001F0000000100000039
:100680000800000000366E01006CDC020300000070
:100690001F000000020000000F0000000100000029
:1006A00004000000808D5B00001BB700000000000C
:1006B0001F000000030000000F0000000100000008
:1006C00004000000001BB70000366E0101000000AE
:1006D0001F000000020000000F00000001000000E9
:1006E0000400000000366E01006CDC020300000014
:1006F0001F000000020000000700000001000000D1
:1007000002000000808D5B00001BB70000000000AD
:100710001F000000020000000F00000001000000A8
:1007200002000000001BB70000366E01010000004F
:100730001F000000010000000F0000000100000089
:100740000200000000366E01006CDC0203000000B5
:100750001F00000001000000070000000200000070
:1007600001000000808D5B00001BB700000000004E
:100770001F00000001000000070000000200000050
:1007800001000000001BB70000366E0101000000F0
:100790001F00000001000000030000000200000034
:1007A0000100000000366E01006CDC020300000056
:1007B0001F00000003000000FFFFFFFF0400000017
:1007C00001000000808D5B00001BB70000000000EE
:1007D0001F000000030000000000000004000000F3
:1007E00001000000001BB70000366E010100000090
:1007F0001F00000003000000FFFFFFFF04000000D7
:100800000100000000366E01006CDC0203000000F5
:100810001F00000002000000FFFFFFFF06000000B5
:1008200001000000808D5B00AAC2A2000000000051
:10083000230000000100000002000000060000008C
:1008400001000000AAC2A200001BB70000000000C7
:100850001700000003000000FFFFFFFF060000007C
:1008600001000000001BB7000024F400010000009C
:100870002F00000003000000FFFFFFFF0600000044
:10088000010000000024F40080A812010100000013
:100890001700000002000000FFFFFFFF060000003D
:1008A0000100000080A812015585450102000000EA
:1008B0002300000002000000FFFFFFFF080000000F
:1008C00001000000808D5B00001BB70000000000ED
:1008D0001F00000003000000FFFFFFFF08000000F2
:1008E00001000000001BB70000366E01010000008F
:1008F0001F00000002000000FFFFFFFF08000000D3
:100900000100000000366E01006CDC0203000000F4
:100910001F00000001000000FFFFFFFF0A000000B1
:1009200001000000808D5B00007C92000000000050
:100930002700000003000000FFFFFFFF0A00000087
:1009400001000000007C9200001BB70000000000C6
:100950001300000002000000FFFFFFFF0A0000007C
:1009600001000000001BB70000F824010100000096
:100970002700000002000000FFFFFFFF0A00000048
:100980000100000000F8240100366E0101000000A3
:100990001300000001000000FFFFFFFF0A0000003D
:1009A0000100000000366E0100F049020300000063
:1009B0002700000001000000FFFFFFFF0C00000007
:1009C00001000000808D5B0000127A000000000032
:1009D0002F00000003000000FFFFFFFF0C000000DD
:1009E0000100000000127A00001BB70000000000A8
:1009F0001700000002000000FFFFFFFF0C000000D6
:100A000001000000001BB7000024F40001000000FA
:100A10002F00000002000000FFFFFFFF0C0000009D
:100A2000010000000024F40000366E010100000007
:100A30001700000001000000FFFFFFFF0C00000096
:100A40000100000000366E0180C3C90103000000F0
:100A50002F00000001000000FFFFFFFF0C0000005E
:100A60000100000080C3C9010048E8010300000044
:100A70002F00000001000000FFFFFFFF0E0000003C
:100A800001000000808D5B00B6A16800000000003E
:100A90003700000003000000FFFFFFFF0E00000012
:100AA00001000000B7A16800001BB70000000000B3
:100AB0001B00000002000000FFFFFFFF0E0000000F
:100AC00001000000001BB7006D43D10001000000D1
:100AD0003700000002000000FFFFFFFF0E000000D3
:100AE000010000006E43D10000366E0101000000DD
:100AF0001B00000001000000FFFFFFFF0E000000D0
:100B00000100000000366E01DB86A2010300000038
:100B10003700000001000000FFFFFFFF1000000091
:100B200001000000808D5B00001BB700000000008A
:100B30001F00000002000000FFFFFFFF1000000088
:100B400001000000001BB70000366E01010000002C
:100B50001F00000001000000FFFFFFFF1200000067
:100B600001000000808D5B00AAC2A200000000000E
:100B70002300000002000000FFFFFFFF1200000042
:100B800001000000ABC2A200001BB7000000000083
:100B90001100000001000000FFFFFFFF1200000035
:100BA00001000000001BB700558545010100000051
:100BB0002300000001000000FFFFFFFF1400000001
:100BC00001000000808D5B00007C920000000000AE
:100BD0002700000002000000FFFFFFFF14000000DC
:100BE00001000000007C9200001BB7000000000024
:100BF0001300000001000000FFFFFFFF14000000D1
:100C000001000000001BB70000F8240101000000F3
:100C10002700000001000000FFFFFFFF160000009A
:100C200001000000808D5B00E82A850000000000C4
:100C30002B00000002000000FFFFFFFF1600000075
:100C400001000000E92A8500001BB7000000000039
:100C50001500000001000000FFFFFFFF160000006C
:100C600001000000001BB700D1550A01010000007F
:100C70002B00000001000000FFFFFFFF1800000034
:100C800001000000808D5B0000127A00000000006F
:100C90002F00000002000000FFFFFFFF180000000F
:100CA0000100000000127A00001BB70000000000E5
:100CB0001700000001000000FFFFFFFF1800000008
:100CC00001000000001BB7000024F4000100000038
:100CD0002F00000001000000FFFFFFFF1A000000CE
:100CE00001000000808D5B0027AE70000000000056
:100CF0003300000002000000FFFFFFFF1A000000A9
:100D00000100000028AE7000001BB70000000000CA
:100D10001900000001000000FFFFFFFF1A000000A3
:100D200001000000001BB7006658E1000100000050
:100D30003300000001000000FFFFFFFF1C00000067
:100D400001000000808D5B00B6A16800000000007B
:100D50003700000002000000FFFFFFFF1C00000042
:100D600001000000B7A16800001BB70000000000F0
:100D70001B00000001000000FFFFFFFF1C0000003F
:100D800001000000001BB7006D43D100010000000E
:100D90003700000001000000FFFFFFFF1E00000001
:100DA00001000000808D5B0000A8610000000000D1
:100DB0003B00000002000000FFFFFFFF1E000000DC
:100DC0000100000000A86100001BB7000000000047
:100DD0001D00000001000000FFFFFFFF1E000000DB
:100DE00001000000001BB7000050C300010000001C
:100DF0003B00000001000000FFFFFFFF200000009B
:100E000001000000808D5B00001BB70000000000A7
:100E10001F00000001000000FFFFFFFF2A4101202A
:100E20004841012058410120524101207A410120CE
:100E3000604101207441012068410120A641012048
:100E4000B6410120B0410120D8410120BE4101201E
:100E5000D2410120C641012008400120F03F01207D
:100E600024400120384001204C40012068400120EE
:100E70008040012098400120B4400120CC40012056
:100E8000EA4001200641012080410120E04101208B
:100E9000F64101209E460120D6450120144501203F
:100EA000D643012030430120E8460120284A012092
:100EB000E4480120704801200A4901202A49012004
:100EC000B4490120D2470120F84701201C480120E5
:100ED00032480120464801205C480120804801201A
:100EE000A0480120B2480120D2480120F40E012080
:100EF000000000006C6962676C6F73730000000093
:100F000000010202030303030404040404040404B0
:100F10000505050505050505050505050505050581
:100F20000606060606060606060606060606060661
:100F30000606060606060606060606060606060651
:100F40000707070707070707070707070707070731
:100F50000707070707070707070707070707070721
:100F60000707070707070707070707070707070711
:100F70000707070707070707070707070707070701
:100F800008080808080808080808080808080808E1
:100F900008080808080808080808080808080808D1
:100FA00008080808080808080808080808080808C1
:100FB00008080808080808080808080808080808B1
:100FC00008080808080808080808080808080808A1
:100FD0000808080808080808080808080808080891
:100FE0000808080808080808080808080808080881
:100FF0000808080808080808080808080808080871
:101000004111014506C6EF30703723A4A194630651
:10101000050801478946414693057002352AF52A9D
:10102000812AB7150080938585AC0145D12C938525
:1010300001830545F124938501810945D1249385D8
:1010400081820D45752C938501821145552C938520
:101050008180154575249385818119455524938593
:1010600081831D45712C912237050120130585339D
:10107000CD2C85450145992237050120130585347E
:10108000CD240D45912C370501201305C534D12CF5
:10109000056513058538ED2C11283705012013054A
:1010A0004532ED2EB2407D554101828079714AD0A2
:1010B000056922D452CC56CA06D626D24ECE02C0DC
:1010C00002C202C402C60144370A0120C14A130900
:1010D00009FAD92093090401CE86228693050A31A4
:1010E0000A85D1260A85B52C85450145C12881444C
:1010F000330594001375F50F8504F92AE39A54FF1C
:101100004A8513F4F90F6924E9B783C7918901115E
:101110009306F1005D8D83C58189A307A10003A516
:10112000018A0547054606CEEF305024F24005619E
:101130008280411106C622C42A84C13F136544003F
:10114000E9370545152C1375B40FC1372244B24059
:101150001305200341010DA423A0A18A238CB1888B
:101160002382D18A238DE1882147A38CE188828064
:1011700021470145A38CE18849BF411122C42A843B
:101180001375050F06C67537131544002244B24087
:101190001375050F410171BF4111054506C6F13FA9
:1011A000B2401305007D4101C1AA4111094506C69F
:1011B000E937B2401305007D41017DAA011122CC1F
:1011C0002E84B705012026CA4146AA849385853519
:1011D0000A8506CEE12A83C7418A63F68700138415
:1011E000F7FF1374F40F1C080A043E94032504FF50
:1011F0006244F2402695D244136505F81375F50F45
:101200000561A5BF9387B18903C507001367450032
:101210001365C5002380E7008DB703A5018A41113E
:1012200006C622C426C26312050A3705012013052B
:101230008536AD2483C7418A238E018805471384F0
:10124000C1896375F70021472300E40003C7A18922
:1012500011CB05476398E7008347040093E74700F5
:101260002300F40013052003252203C5918985641A
:10127000693D1305803E292A130500035D3D138552
:101280004419DD28130500036D3513854419ED203D
:1012900013050003793D13056009F92813050002C1
:1012A000493D0345040013650502C13D1147A38D67
:1012B000E188893FD53509471945A38EE188753DF9
:1012C0002244B24092444101CDB5E1650546938583
:1012D000056AEF303009B9BF411122C42A8441990F
:1012E0001365150006C6B1351315440013651500C6
:1012F0001375150F3D3DB2402244054541018280E2
:101300001D890E0541111365050422C426C24AC079
:1013100006C62E8901449535A144B307890003C54B
:1013200007000504553FE31A94FEB240224492445C
:10133000024941018280011122CC26CA06CEAA842C
:1013400001446347B400F2406244D24405618280A4
:10135000B387840003C507002EC60504B53FB24518
:10136000CDB7411122C406C62A844922AA85228506
:101370002244B2404101C1B7411102C6B24763E401
:10138000A700410182800100B24785073EC6FDB734
:10139000411122C406C62A8409E4B2402244410114
:1013A00082801305803EC93F7D14FDB72A8309CA98
:1013B00083830500230073007D16050385056DFA00
:1013C0008280011126CA4AC806CE22CC4EC652C41B
:1013D000AA842E8901C51C4D91E3912B9C4C80441D
:1013E00099E32685A92397F7FFFF9387E7FB631C03
:1013F000F402C0408357C400A18BB1C71C48A1C7E9
:10140000FD59294A1C4483450900FD17B1E91CC454
:1014100063DE07062286A9452685D520FD57630889
:10142000F502294535A097F7FFFF9387E7F9631485
:10143000F4008044C1B797F7FFFF9387E7F4E31BFD
:10144000F4FAC04445BFA2852685952A55D97D5515
:10145000F2406244D2444249B249224A0561828044
:101460001CC4050963D70700184C63CBE7006389E8
:1014700045011C401387170018C02380B70059B7D7
:1014800022862685AD28E31F35F7D1B71C40138788
:10149000170018C029472380E70061B793870184AC
:1014A000AA85884339BF35713ECBB707008093C703
:1014B000F7FF3ECE3EC8C1779387872032C536C737
:1014C0003AC942CD46CF3ECA938701842AC42ACC6A
:1014D000884334012E862C0086DE36C2EF001013BE
:1014E000A24723800700F6500D618280AA878507F6
:1014F00003C7F7FF6DFF3385A7407D15828001117B
:1015000022CC26CA4AC806CE4EC6AA842E89328468
:1015100001C51C4D91E3212997F7FFFF9387C7E889
:101520006319F406C0401C4C1CC48357C400A18B33
:10153000C9C31C48BDCF1C4808409379F90F1379E3
:10154000F90F1D8D5C486346F500A2852685D924D8
:101550002DE51C440505FD171CC41C40138717000E
:1015600018C0238037015C486389A7008357C400F3
:10157000858B81CBA9476316F900A2852685592C56
:101580000DEDF24062444A85D2444249B2490561B8
:10159000828097F7FFFF938727E36314F40080446A
:1015A00059B797F7FFFF938727DEE31EF4F6C04491
:1015B0009DBFA285268521203DDD7D59D9B74111EA
:1015C0009387018426C2844322C44AC006C62A895E
:1015D0002E8489C49C4C99E32685912E97F7FFFFB2
:1015E000938787DC631CF402C0400317C400931781
:1015F0000701C18393F68700B5EE93F607019DEED0
:10160000A5472320F900136707042316E4007D553E
:10161000B2402244924402494101828097F7FFFF81
:10162000938787DA6314F4008044C1B797F7FFFF0C
:10163000938787D5E31BF4FAC04445BF918B8DC7D0
:101640004C5889C9930744046384F5004A85912B5B
:10165000232A04028357C4002322040093F7B7FD12
:101660002316F4001C481CC08357C40093E787006E
:101670002316F4001C4881EF8357C4001307002091
:1016800093F707286385E700A2854A85A52183573C
:10169000C40013F7170005C75C4823240400B307F0
:1016A000F0401CCC1C480145A5F78317C40013F774
:1016B000070839DF93E707042316F40089BF898BF5
:1016C000014791E3584818C4F1BF83D7C500011101
:1016D00022CC26CA06CE4AC84EC613F78700AA8473
:1016E0002E8465E7D8416347E000B8416344E000D9
:1016F0000145C1A058546DDF03A90400939637013A
:1017000023A0040063DE060668488357C400918B5B
:1017100099C75C401D8D5C5899C33C401D8D5C543D
:101720000C502A86814626858297FD570357C400B0
:10173000631DF5009440F54763E4D708B7074020E0
:101740008507B3D7D700858BA5CF1C48232204007B
:101750001CC09317370163D80700FD576314F500C9
:101760009C4091E368C84C5823A02401D1D1930731
:1017700044046384F50026852D21232A04028DBFAD
:101780000C508546014626850297FD57E31FF5F666
:101790009C40A5DF75476385E70059476395E700DF
:1017A00023A02401B1B78357C40093E7070423168D
:1017B000F400F2406244D2444249B2490561828059
:1017C000136707042316E400EDB783A90501E3813D
:1017D00009F203A905008D8B23A035013309394196
:1017E000014791E3D84918C4E35420F11C540C502C
:1017F000CA864E8626858297634AA0008357C40016
:101800007D5593E707042316F40065B7AA993309B9
:10181000A940D9BF9C49B9CF011122CC06CE2A8458
:1018200011C51C4D81E72EC61922B24597F7FFFF5F
:10183000938787B7639BF5004C408397C50095C796
:1018400022856244F240056149B597F7FFFF93870F
:10185000A7B76394F5000C44CDB797F7FFFF9387C4
:10186000A7B2E39CF5FC4C44C9BFF2406244014579
:101870000561828001458280411122C406C62A8406
:101880002316B5002317C5002320050023220500D9
:10189000232405002322050623280500232A05000A
:1018A000232C0500214681451305C505DD24971726
:1018B00000009387C7BA5CD097170000938727BDB5
:1018C0001CD497170000938767C15CD4971700005A
:1018D000938727C400D01CD8B240224441018280A3
:1018E00097050000938545F399A2411126C213067E
:1018F00080069384F5FFB384C4024AC02E8922C4B3
:1019000006C69385440791262A8419C92320050019
:1019100023222501310508C4138684068145952CB0
:101920002285B240224492440249410182801C4DEA
:10193000ADE3411106C622C497070000938787FADA
:101940001CD5938741849C43232405042326050446
:10195000232805046314F50085471CCD2A841D281F
:1019600048C02285052808C422852D2048C4484047
:1019700001469145113708440546A545F53D4844C3
:101980000946C945D53D85471CCCB240224441019A
:101990008280828041119387418426C284434AC059
:1019A00006C69C4C22C42A8999E32685493793842C
:1019B00084048044DC40FD1763D607009C40B1CF0F
:1019C0008440C5BF0317C40031E7C17785072322D0
:1019D00004062320040023220400232404005CC402
:1019E00023280400232A0400232C040021468145D7
:1019F0001305C405792A232A0402232C0402232474
:101A00000404232604042285B2402244924402495D
:101A1000410182801304840679BF91454A85F135DE
:101A200088C02A8451FDB1472320F900E9BF7971AC
:101A300022D44AD052CC56CA5AC85EC606D626D23E
:101A40004ECE2A8AAE8A130485040149054BFD5BFC
:101A500009ECB25022544A8592540259F249624A22
:101A6000D24A424BB24B45618280044483294400F0
:101A7000FD1963D409000040E1BF83D7C400637B34
:101A8000FB008397E40063877701A6855285829ADD
:101A90003369A90093848406E1BF1971A6DAAE8484
:101AA0008395E500A2DC86DE328463DC050083D703
:101AB000C40023A0060093F7070885E793070040BA
:101AC0001DA0300836C6EF00702AB246E34105FE7D
:101AD0007247BD67F98F7977BA9793B717009CC2A1
:101AE000F1BF930700041CC0F6506654D65401455C
:101AF0000961828083D7C500011122CC06CE26CA97
:101B00004AC8898B2E8489CF930774041CC01CC8D3
:101B100085475CC8F2406244D244424905618280F4
:101B200074003000AA84953FA2452A892685312A6F
:101B300001ED8317C40013F7072069FFF19B93E7BA
:101B400027002316F400C9B797070000938787D9A9
:101B50009CD48357C40008C008C893E7070823161D
:101B6000F400A2475CC8B24791CF8315E4002685F4
:101B7000EF00902201C98357C400F19B93E717003F
:101B80002316F4008357C4003369F9002316240197
:101B900051B72A8311C62300B3007D16050365FEE5
:101BA0008280DDC183A7C5FF411122C406C626C2BB
:101BB0001384C5FF63D307003E94AA84EF00502727
:101BC0009387818A9C4381EF2322040023A4818A86
:101BD0002244B2402685924441016F009025637EE5
:101BE000F40014403307D4006396E7009843DC43C5
:101BF000369718C05CC0D9BFBA87D84319C3E37DF4
:101C0000E4FE94433386D700631F86001040B296EB
:101C100094C33386D700E31DC7FA10435843B296E6
:101C200094C3D8C375B76375C400B1479CC04DB7A2
:101C30001040B306C4006316D70014435843B2964D
:101C400014C058C0C0C369B78280011126CA9384EA
:101C50003500F19806CE22CC4AC84EC6A104B14741
:101C600063F5F404B14463E4B4042A89EF00501C22
:101C70009387818A98433A8429E49387C18A9C4355
:101C800099E781454A85EF00A07A23A6A18AA68517
:101C90004A85EF00E079FD5963193507B1472320E4
:101CA000F9004A85EF00F01829A0E3DE04FAB147F5
:101CB0001CC10145F2406244D2444249B249056127
:101CC00082801C40858F63CF0702AD4663F6F60025
:101CD0001CC03E9404C031A05C406313870223A45F
:101CE000F18A4A85EF00F0141305B400930744000D
:101CF00061993307F5405DDF3A94898F1CC05DBF61
:101D00005CC3C5B72287404085BF13043500719876
:101D1000E30285FCB305A4404A85192FE31C35FB7B
:101D2000B5BF01114AC803A9850022CC52C45AC0CC
:101D300006CE26CA4EC656C22E84328B368A63ED34
:101D4000260983D7C50013F7074849C704408C49C3
:101D50005848AA8AB389B4408D44B384E402094741
:101D6000B3C4E402138716004E9763F3E400BA8409
:101D700093F70740D1C3A6855685C13D2A890DE555
:101D8000B14723A0FA008357C4007D5593E70704A9
:101D90002316F400F2406244D2444249B249224A36
:101DA000924A024B056182800C484E86EFF00FE0AC
:101DB0008357C40093F7F7B793E707082316F40097
:101DC0002328240144C84E99B3843441232024019C
:101DD00004C4528963732A01528908404A86DA850D
:101DE000EF00B0021C440145B38727411CC41C40CE
:101DF0003E992320240179BF26865685EF00900363
:101E00002A895DFD0C485685693B9DBF83D7C50077
:101E1000717126D34AD14ECF06D722D552CD56CB9B
:101E20005AC95EC762C566C393F70708AA892E8997
:101E3000B284B1C39C49A1E39305000436C6313591
:101E40002320A9002328A900B24615E1B14723A009
:101E5000F9007D55BA502A549A540A59FA496A4AE7
:101E6000DA4A4A4BBA4B2A4C9A4C4D61828093070E
:101E70000004232AF90093070002A30CF102930740
:101E8000000302DA230DF10236CE930B500297EADB
:101E9000FFFF938A6A55054C294B2684834704002B
:101EA00099C3639B7709B30C9440638D0C00E6865D
:101EB0002686CA854E85B535FD576301F51AD2567B
:101EC000E69636DA83470400638A0718FD579304C1
:101ED000140002D002D63ED202D4A301010682DC55
:101EE00083C50400154656852127138414008257A4
:101EF00031E513F7070109C713070002A301E10643
:101F000013F7870009C71307B002A301E10683C6D0
:101F100004001307A002638BE602B25726848146B1
:101F200025460347040093051400130707FD637457
:101F3000E6068DC63ED61DA005048DB73305554176
:101F40003315AC00C98F3ED0A28459BF72479306A7
:101F50004700184336CE634907023AD603470400C8
:101F60009307E002631FF704034714009307A002DE
:101F7000631BF702F2470904138747009C433ACEDC
:101F800063C107023ED235A83307E04093E727003C
:101F90003AD63ED0E1B7B387670385462E84BA9719
:101FA00049B7FD57C5B7050402D28146814725468A
:101FB0000347040093051400130707FD6376E60644
:101FC000F1F2834504000D4617E5FFFF1305454276
:101FD000052511CD97E7FFFF938787411D8D930757
:101FE0000004B397A700025505045D8D2AD08345F0
:101FF0000400194617E5FFFF1305C53F93041400BD
:10200000230CB102F52325C597E7FEDF938787FFF1
:1020100095E70257F2471377071009CF91073ECE95
:10202000D257D2973EDA95BDB387670385462E8493
:10203000BA97BDBF9D07E19BA107D5B77808970662
:102040000000938646CE4A860C104E85970000000D
:10205000E7000000FD572A8AE314F5FC8357C90006
:102060007D5593F70704E39707DE5255E5B37808EB
:1020700097060000938626CB4A860C104E85012ACF
:10208000D1BF797156CA9C49BA8A984522D426D2C2
:102090004ECE52CC06D64AD05AC85EC6AA892E84E5
:1020A000B284368A63D3E700BA879CC003473404FE
:1020B00019C385079CC01C4093F7070281C79C4049
:1020C00089079CC00329040013796900631A090079
:1020D000130B9401FD5B5C449840998F634CF904A9
:1020E0001C408346340493F70702B336D000A5EBB7
:1020F00013063404D2854E85829AFD576303F50496
:102100001C4011469840998B544481446397C70002
:10211000B384E64063D3040081441C4418486354EC
:10212000F700998FBE94014969047D5B639824058B
:10213000014509A885465A86D2854E85829A631E36
:1021400075017D55B250225492540259F249624AA7
:10215000D24A424BB24B456182800509ADBF33077D
:10216000D40013060003A301C70403475404938754
:102170001600A2978906A381E7049DBF85462286A3
:10218000D2854E85829AE30E65FB050945B77971C4
:1021900022D426D24AD04ECE06D652CC56CA5AC8DF
:1021A000B68983C685019307E0063289AA842E8406
:1021B000138635046380F61E63E2D7069307300664
:1021C0006382F60A63EDD700638A061E93078005D3
:1021D0006386F616930A24042301D40469A893079E
:1021E00040066386F60093079006E395F6FE1C40D2
:1021F000084393F6070893054500C1C21C410CC370
:1022000063D807001307D002B307F040A301E4042A
:1022100097E6FFFF9386861E294765A09307300740
:102220006382F61A63EFD7009307F006638FF60414
:1022300093070007E390F6FA9C4193E707029CC1DD
:1022400009A8930750076382F60493078007E39376
:10225000F6F893078007A302F40497E6FFFF93863E
:10226000261BDDA01C43938A2504938647009C43CC
:1022700014C32381F5048547ADA293F607041C41DE
:102280000CC3BDDEC207C187A5BF0C401C4313F8B9
:102290000508138547006305080008C39C4339A05F
:1022A00093F5050408C3FDD983D707001307F0068B
:1022B000638AE60C97E6FFFF938646142947A3013D
:1022C00004044C400CC463C5050008406D9908C067
:1022D00099E3B28A91CDB28AB3F5E702FD1AB695B9
:1022E00083C505002380BA00B3D5E70263F2E70A8D
:1022F000A147631EF7001C40858B91CB58401C48BA
:1023000063C7E70093070003A38FFAFEFD1A3306A5
:10231000564110C84E87CA867000A285268595331F
:102320007D5A6314450D7D55B25022549254025982
:10233000F249624AD24A424B45618280A382D50467
:1023400097E6FFFF9386860B0C40084313F80508B9
:102350001C4111056300080208C313F7150001C7EB
:1023600093E505020CC04147B9FB0C4093F5F5FD20
:102370000CC0B1B713F8050408C3E30008FEC20798
:10238000C183E1BF97E6FFFF93864607214705BF5C
:10239000AE8799B794411C43CC4913F806081385BE
:1023A00047006306080008C39C438CC301A808C308
:1023B00093F606049C43F5DA2390B7002328040023
:1023C000B28A89BF1C43D04181459386470014C31C
:1023D00083AA07005685292C01C53305554148C0FD
:1023E0005C401CC8A301040435B714485686CA854E
:1023F00026858299E30945F31C40898B8DE7B24716
:102400004844E353F5F23E8505B785465686CA85AE
:1024100026858299E30965F1050A5C443247998F64
:10242000E345FAFEE9BF014A930A94017D5BF5B7E3
:10243000411122C42A842E8523A6019406C6EF20CA
:10244000B01FFD576317F5009387C1949C4391C358
:102450001CC0B240224441018280411122C42E841A
:102460008395E50006C61D24634905007C48AA97AC
:102470007CC8B2402244410182808357C4007D77EA
:102480007D17F98F2316F400EDB783D7C50001112E
:1024900022CC26CA4AC84EC606CE93F70710AA8495
:1024A0002E843289B68991C78395E5008946014615
:1024B000092A8357C4007D777D17F98F2316F4000E
:1024C0008315E4006244F240CE864A86B24942490E
:1024D0002685D24405613DA8411122C42E848395EE
:1024E000E50006C6F928FD570357C400631BF50035
:1024F000FD77FD17F98F2316F400B2402244410105
:1025000082808567D98F2316F40068C8FDB783954C
:10251000E50005A8411122C42A842E85B28536869D
:1025200023A6019406C6EF20D014FD576317F500CB
:102530009387C1949C4391C31CC0B2402244410183
:102540008280411122C42A842E8523A6019406C6C6
:10255000EF201009FD576317F5009387C1949C4342
:1025600091C31CC0B240224441018280411122C467
:102570002A842E85B28523A6019406C6EF209007F3
:10258000FD576317F5009387C1949C4391C31CC00A
:10259000B240224441018280411122C42A842E8506
:1025A00023A6019406C6EF203006FD576317F500F9
:1025B0009387C1949C4391C31CC0B2402244410103
:1025C0008280411122C42A842E85B285368623A6B4
:1025D000019406C6EF20D003FD576317F5009387DB
:1025E000C1949C4391C31CC0B240224441018280EB
:1025F00093F5F50F2A966314C50001458280834741
:102600000500E38DB7FE0505FDB715C22A83854693
:102610006367B500FD561307F6FF3A93BA958383B7
:102620000500230073007D163693B6956DFA8280FF
:102630008280828081E5B2856FF02FE1011122CC8A
:1026400006CE26CA4AC84EC6328401EEEFF06FD5D8
:102650000149F24062444A85D2444249B249056187
:102660008280AE84AA8991282689E37485FEA2859A
:102670004E85EFF08FDD2A8969DDA6852286EFE0A1
:10268000FFD2A6854E85EFF0CFD1E1B7411122C42C
:102690002A842E85B285368623A6019406C6EF20AD
:1026A0006078FD576317F5009387C1949C4391C3ED
:1026B0001CC0B24022444101828083A7C5FF13851C
:1026C000C7FF63D50700AA959C413E9582809387FA
:1026D0008184370700026383A70001478E05BA95FE
:1026E000116793074700AE977D5588C3BA9590C18F
:1026F00094C3014582807D5582806F001076411120
:1027000006C6732540F1EF20C044B24041016F205E
:10271000C043011106CE2EC6DD3719C9B2450547A3
:102720006368B7001C41F24003A3470005610283C0
:10273000F2407D550561828001114AC806CE22CC47
:1027400026CA4EC69387818401496313F50009495F
:10275000444181E82A84B7090080639B24018547AE
:102760005CC0F2406244D2444249B2490561828071
:102770008D4591C09D4583A7890BA2860146DC4FFC
:102780001385890B85048297C9BFB9C1011122CC79
:102790002EC606CE2A84A53793878184B24563145A
:1027A000F402B70700809387870B631EF50093F749
:1027B000B5FF8D466399D7001C416244F24003A3E4
:1027C000870205610283F24062447D550561828083
:1027D0007D558280B9C1011122CC2EC606CE2A8435
:1027E000393F93878184B2456314F402B7070080B0
:1027F0009387870B631EF50093F7B5FF8D466399AA
:10280000D7001C416244F24003A3470205610283E2
:10281000F24062447D55056182807D5582800111C0
:102820002EC632C436C206CE22CC26CAAA84EF00F7
:10283000D0622A84E9359387818492462246B24544
:102840006395F400854763F88700F2406244D24400
:102850007D5505618280B70700809387870B2A87A3
:10286000E315F5FE93F7B5FF0D48E39007FF1C4312
:102870006244F240D24403A3C70105610283138777
:102880008184B70700026303A7008147B1661387FD
:10289000C6FFE1163E97B697144388430C43E39D69
:1028A000D5FE82809387818401476314F500370742
:1028B000000289476386F50463C8B70085476382D1
:1028C000F502FD573E8582808D476384F50491476C
:1028D000E399F5FE81477DD61C428A07BA979C434F
:1028E000D5B7FD5765D2411122C406C63284413F97
:1028F00008C04CC0B240224481473E8541018280DD
:10290000FD5769D21C428A07BA9723A00700814766
:1029100055BFFD5745DA1C428A07BA97054798C349
:102920000F0080049C43E5B7011106CE22CC2A8417
:10293000EF20E0222AC6700022858945A537F240A3
:10294000624405618280011106CE22CC2A84EF20E8
:1029500000212AC6700022858D45A937F2406244C5
:1029600005618280AA85F32740F11397270093879A
:102970000186BA978843F32720340DC593F7F73FB4
:10298000138701859387870E631BE5003707008057
:102990008A071307870BBA9703A3070002838A07E6
:1029A0009C430290828082800000000000000000B2
:1029B0000000000000000000000000000000000017
:1029C0000000000000000000000000000000000007
:1029D00000000000000000000000000000000000F7
:1029E00000000000000000000000000000000000E7
:1029F00000000000000000000000000000000000D7
:102A0000397106DE16DC1ADA1ED82AD62ED432D256
:102A100036D03ACE3ECC42CA46C872C676C47AC2D6
:102A20007EC0F32740F11397270093870186BA975A
:102A3000944373262034F3271034F327303473275C
:102A400050308DC6938701856385F60481471375E1
:102A5000F63F635D0606930600086311D50403A7DD
:102A6000073983A58739130500080297F250E2520F
:102A70005253C2533255A255125682567247E247FC
:102A80005248C248324EA24E124F824F216173000B
:102A90002030B70700809387870B55BFAD4663D5BD
:102AA000A6001377F70311EB61473307E502BA97E6
:102AB00003A7070983A587094DBF8946E318D7FAFD
:102AC00073277030184383A5C70D45B71307850ECC
:102AD0000A07BA979C43AA853685829741BF0000B2
:102AE00000000000000000000000000000000000E6
:102AF0000000000000000000000001458280F32576
:102B000000B8732500B0F32700B8E39AF5FE828081
:102B100011CD938701856306F50001459355F54175
:102B200082803725F40013050540CDBF014581455E
:102B300082800111814701483EC406CE42C6938778
:102B40000185639CA700B707008003A5471F11C537
:102B50001C4130008545FC478297F2402245B24532
:102B6000056182801385818482801D4582800D45A8
:102B70008280011106CE2EC6938701856391A7023C
:102B8000B707008083A747197D5599C79843700000
:102B90008D4578473E850297F240056182807D55DC
:102BA000E5BF011106CE2EC6938701856391A7026A
:102BB000B707008083A747197D5599C798437000D0
:102BC000894578473E850297F240056182807D55B0
:102BD000E5BF011106CE2EC6938701856391A7023A
:102BE000B707008083A74719014599C7984370002C
:102BF000914578473E850297F24005618280014504
:102C0000E5BF938701856384A7000145828037056E
:102C100000801305850B828083D705000D47114581
:102C20008D8B6383E7000945828073251034828091
:102C3000739015340145828001458280411113054E
:102C4000400606C6EF10507441111305800C06C6ED
:102C5000EF10907393870185B2862E86639CA70040
:102C6000B707008003A5471F11C51C41814503A379
:102C7000070502837D558280411106C622C4F327D1
:102C800040F101446348F0001397270093870186C1
:102C9000BA9780432285713D9307A50033B5A700FD
:102CA0003306B50022852244B240BE8541015DB79E
:102CB0005C41A9EF930705091307053923A0070015
:102CC00023A2070023A40700E107E399E7FE3737B3
:102CD00001209307053A9306053D1307C7C398C320
:102CE0009107E39EF6FE73275030B70701209387C4
:102CF000C713631BF700F3275030B73701209387C2
:102D000007A0F19B7390573085475CC18280938701
:102D100001856392A702AD477D5563CFB70009CE09
:102D2000B70700809385850E9387870B8A05BE952C
:102D300090C1014582807D55828013858184828087
:102D400081EDF3275030B7370120938707A0F19B1F
:102D5000739057300145828085477D55E39DF5FE90
:102D6000F3275030B7570120938707C893E7170020
:102D7000C5B7732540F1828039712AD61305C01278
:102D800006DE16DC1ADA1ED82ED432D236D03ACE6F
:102D90003ECC42CA46C872C676C47AC27EC0EF1024
:102DA000B05E397106DE16DC1ADA1ED82AD62ED4A9
:102DB00032D236D03ACE3ECC42CA46C872C676C46B
:102DC0007AC27EC0F32740F11397270093870186CC
:102DD000BA97984319CF93870185631FF702B70706
:102DE00000809387870B03A7870D83A5070E0D45EA
:102DF0000297F250E2525253C2533255A255125624
:102E000082567247E2475248C248324EA24E124F93
:102E1000824F2161730020308327000E02903971A8
:102E200006DE16DC1ADA1ED82AD62ED432D236D0D6
:102E30003ACE3ECC42CA46C872C676C47AC27EC07A
:102E4000F32740F11397270093870186BA97984399
:102E500019CF93870185631FF702B7070080938717
:102E6000870B03A7871383A507141D450297F2500C
:102E7000E2525253C2533255A255125682567247ED
:102E8000E2475248C248324EA24E124F824F216151
:102E900073002030832700140290397106DE16DC9F
:102EA0001ADA1ED82AD62ED432D236D03ACE3ECC1A
:102EB00042CA46C872C676C47AC27EC0F32740F1C1
:102EC0001397270093870186BA97984319CF938762
:102ED0000185631FF702B70700809387870B03A75D
:102EE000072183A5872141450297F250E2525253B0
:102EF000C2533255A255125682567247E247524883
:102F0000C248324EA24E124F824F216173002030D0
:102F1000832780210290397106DE16DC1ADA1ED86A
:102F20002AD62ED432D236D03ACE3ECC42CA46C869
:102F300072C676C47AC27EC0F32740F11397270089
:102F400093870186BA97984319CF93870185631FAA
:102F5000F702B70700809387870B03A7872283A513
:102F6000072345450297F250E2525253C25332555D
:102F7000A255125682567247E2475248C248324E14
:102F8000A24E124F824F216173002030832700230D
:102F90000290397106DE16DC1ADA1ED82AD62ED433
:102FA00032D236D03ACE3ECC42CA46C872C676C479
:102FB0007AC27EC0F32740F11397270093870186DA
:102FC000BA97984319CF93870185631FF702B70714
:102FD00000809387870B03A7072483A5872449458F
:102FE0000297F250E2525253C2533255A255125632
:102FF00082567247E2475248C248324EA24E124FA2
:10300000824F216173002030832780240290397120
:1030100006DE16DC1ADA1ED82AD62ED432D236D0E4
:103020003ACE3ECC42CA46C872C676C47AC27EC088
:10303000F32740F11397270093870186BA979843A7
:1030400019CF93870185631FF702B7070080938725
:10305000870B03A7872583A507264D450297F250C6
:10306000E2525253C2533255A255125682567247FB
:10307000E2475248C248324EA24E124F824F21615F
:1030800073002030832700260290397106DE16DC9B
:103090001ADA1ED82AD62ED432D236D03ACE3ECC28
:1030A00042CA46C872C676C47AC27EC0F32740F1CF
:1030B0001397270093870186BA97984319CF938770
:1030C0000185631FF702B70700809387870B03A76B
:1030D000072783A5872751450297F250E2525253A2
:1030E000C2533255A255125682567247E247524891
:1030F000C248324EA24E124F824F216173002030DF
:10310000832780270290397106DE16DC1ADA1ED872
:103110002AD62ED432D236D03ACE3ECC42CA46C877
:1031200072C676C47AC27EC0F32740F11397270097
:1031300093870186BA97984319CF93870185631FB8
:10314000F702B70700809387870B03A7872883A51B
:10315000072955450297F250E2525253C253325555
:10316000A255125682567247E2475248C248324E22
:10317000A24E124F824F2161730020308327002915
:103180000290397106DE16DC1ADA1ED82AD62ED441
:1031900032D236D03ACE3ECC42CA46C872C676C487
:1031A0007AC27EC0F32740F11397270093870186E8
:1031B000BA97984319CF93870185631FF702B70722
:1031C00000809387870B03A7072A83A5872A594581
:1031D0000297F250E2525253C2533255A255125640
:1031E00082567247E2475248C248324EA24E124FB0
:1031F000824F2161730020308327802A0290397129
:1032000006DE16DC1ADA1ED82AD62ED432D236D0F2
:103210003ACE3ECC42CA46C872C676C47AC27EC096
:10322000F32740F11397270093870186BA979843B5
:1032300019CF93870185631FF702B7070080938733
:10324000870B03A7872B83A5072C5D450297F250B8
:10325000E2525253C2533255A25512568256724709
:10326000E2475248C248324EA24E124F824F21616D
:10327000730020308327002C0290397106DE16DCA3
:103280001ADA1ED82AD62ED432D236D03ACE3ECC36
:1032900042CA46C872C676C47AC27EC0F32740F1DD
:1032A0001397270093870186BA97984319CF93877E
:1032B0000185631FF702B70700809387870B03A779
:1032C000072D83A5872D61450297F250E252525394
:1032D000C2533255A255125682567247E24752489F
:1032E000C248324EA24E124F824F216173002030ED
:1032F0008327802D0290397106DE16DC1ADA1ED87B
:103300002AD62ED432D236D03ACE3ECC42CA46C885
:1033100072C676C47AC27EC0F32740F113972700A5
:1033200093870186BA97984319CF93870185631FC6
:10333000F702B70700809387870B03A7872E83A523
:10334000072F65450297F250E2525253C25332554D
:10335000A255125682567247E2475248C248324E30
:10336000A24E124F824F2161730020308327002F1D
:103370000290397106DE16DC1ADA1ED82AD62ED44F
:1033800032D236D03ACE3ECC42CA46C872C676C495
:103390007AC27EC0F32740F11397270093870186F6
:1033A000BA97984319CF93870185631FF702B70730
:1033B00000809387870B03A7073083A58730694573
:1033C0000297F250E2525253C2533255A25512564E
:1033D00082567247E2475248C248324EA24E124FBE
:1033E000824F216173002030832780300290397131
:1033F00006DE16DC1ADA1ED82AD62ED432D236D001
:103400003ACE3ECC42CA46C872C676C47AC27EC0A4
:10341000F32740F11397270093870186BA979843C3
:1034200019CF93870185631FF702B7070080938741
:10343000870B03A7873183A507326D450297F250AA
:10344000E2525253C2533255A25512568256724717
:10345000E2475248C248324EA24E124F824F21617B
:1034600073002030832700320290397106DE16DCAB
:103470001ADA1ED82AD62ED432D236D03ACE3ECC44
:1034800042CA46C872C676C47AC27EC0F32740F1EB
:103490001397270093870186BA97984319CF93878C
:1034A0000185631FF702B70700809387870B03A787
:1034B000073383A5873371450297F250E252525386
:1034C000C2533255A255125682567247E2475248AD
:1034D000C248324EA24E124F824F216173002030FB
:1034E000832780330290397106DE16DC1ADA1ED883
:1034F0002AD62ED432D236D03ACE3ECC42CA46C894
:1035000072C676C47AC27EC0F32740F113972700B3
:1035100093870186BA97984319CF93870185631FD4
:10352000F702B70700809387870B03A7873483A52B
:10353000073575450297F250E2525253C253325545
:10354000A255125682567247E2475248C248324E3E
:10355000A24E124F824F2161730020308327003525
:103560000290397106DE16DC1ADA1ED82AD62ED45D
:1035700032D236D03ACE3ECC42CA46C872C676C4A3
:103580007AC27EC0F32740F1139727009387018604
:10359000BA97984319CF93870185631FF702B7073E
:1035A00000809387870B03A7073683A58736794565
:1035B0000297F250E2525253C2533255A25512565C
:1035C00082567247E2475248C248324EA24E124FCC
:1035D000824F216173002030832780360290397139
:1035E00006DE16DC1ADA1ED82AD62ED432D236D00F
:1035F0003ACE3ECC42CA46C872C676C47AC27EC0B3
:10360000F32740F11397270093870186BA979843D1
:1036100019CF93870185631FF702B707008093874F
:10362000870B03A7873783A507387D450297F2509C
:10363000E2525253C2533255A25512568256724725
:10364000E2475248C248324EA24E124F824F216189
:1036500073002030832700380290F327503093F70F
:10366000F703FD17094701456367F7001387418694
:10367000BA9703C507008280CDB7AD476308F5024E
:1036800063CBA7000D4785476305E50065159337B4
:1036900015003E85828041478147E34CE5FE7D472A
:1036A0008547E358A7FE130505F8D5B78547D5B775
:1036B000011122CC2A842E8526CA4AC84EC606CEBF
:1036C000AE84B2893689553FD55701C993070008A2
:1036D000639AF4085937CD572DCDF2406244D24455
:1036E0004249B2493E850561828023283439232C22
:1036F000243909A8E145B384B40226942328340967
:10370000232C24098147D1BF138704FFBD46D1571D
:10371000E3E5E6FCE145B384B402B73701209387C3
:1037200087C426942328F408232A2409E1BFB73745
:10373000012093874796232CF40C232E240DD9B710
:10374000B7370120938787C7232CF412232E241325
:1037500055BFE39C09F8B73701209387679A232860
:10376000F43871B7E39809F8AD47E385F4FAE3CD8F
:1037700097F88D47E38DF4FA9D47E383F4FCD15726
:10378000A9BF11C99D47638AF50463E8B7009DC5C9
:103790008D47638FF5027D5615A8AD476382F5040A
:1037A000E3EBF5FE938705FF3D47E366F7FE8547AC
:1037B000B395B7000DCEF3A5453029A0A14709C6A2
:1037C000F3A70730014619A0F3B70730328582808E
:1037D000A14719CAF3A74730F5B793070008D5BF2B
:1037E000856793870780F5B7F3B74730C5B7F3B55B
:1037F0004530E9BF054671B7014661B7B70700809C
:103800009387074B639DA70099477D5563EAC700DF
:10381000B707000C8A05BE9590C1014582807D5591
:103820008280B70700809387074B6387A700814793
:103830008A05BE9588418280B707000CD5BF41112B
:103840001305C01206C6EF1020340111B70700801F
:1038500022CC06CE26CA4AC84EC652C49387074B0E
:103860002A8401476314F500130750037D5563D57F
:10387000E502B689328AAE841399250015C62285E1
:103880000946AD3FE145B384B4022299232449019E
:1038900026942328340F0145F2406244D244424921
:1038A000B249224A0561828022850546813FE14571
:1038B000B384B402B747012022999387E783232476
:1038C000F90026942326340FF9B7B70700809387B1
:1038D000074B01476394A7003707000CB707200088
:1038E0009107B205BE95BA9588418280B7070080DE
:1038F0009387074B3707000C6383A7000147B7077F
:103900002000B2059107BE95BA9590C18280011141
:1039100006CE22CC26CA2E84EFF0AFC53335A000E8
:10392000B304A040A68522854D37B7070080938752
:10393000074B2A866314F4029307400363E0A7024F
:1039400093172500A297984711CBE147B307F502DB
:103950002AC6A29783A5070F0297324622856244A2
:10396000F240A685D244056151B7B707008093871E
:10397000074B3707000C6383A7000147B7072000F8
:10398000B205BE95BA9590C101458280011122CC45
:1039900006CE2A842EC6EFF0CFBDAA8522856244CA
:1039A0003246F2400561D1B7011122CC26CA4AC87D
:1039B0004EC652C406CEAA89328A2E898144014459
:1039C000631B0900F240624426854249D244B24951
:1039D000224A0561828009C85286A2854E857137C8
:1039E000058933158500C98C050413591900C9BF11
:1039F000B70700809387074B638AA7008147370783
:103A00002000B205BA95BE9588418280B707000CA8
:103A1000FDB7411122C406C62A84EFF08FB5AA85EE
:103A200022852244B2404101E1B7411106C6C9379F
:103A3000B240014541018280370700801307074BE0
:103A40003708000C6303A7000148135756400A07C4
:103A500093977500BA970967BA97C2978C43054741
:103A60003316C70089C64D8E90C301458280134628
:103A7000F6FF6D8ED5BF011126CA444106CE22CC79
:103A80004AC84EC652C456C25AC099C8F24062448F
:103A9000D2444249B249224A924A024B056182808D
:103AA000B70700809387074B930A50036303F50021
:103AB000814A370900808327890B2A841305890BE3
:103AC0009C439309C40E130A890B8297130B004081
:103AD0008146268681452285853763DF540101466C
:103AE000A6852285213B93972400A29723A4070053
:103AF00023A0090023A209008504E109E39A64FDDB
:103B0000014681452285953583270A00A286014614
:103B1000DC4FAD451305890B829783270A00374692
:103B20000120A286DC4F1306E690AD451305890BF4
:103B3000829783270A00AD451305890BDC538297D2
:103B400085475CC0A1B7B70700809387074B014743
:103B50006314F50013075003FD5763D4E502011108
:103B600006CE22CC2EC62A84EFF0AFA03246AA851C
:103B700085462285D135F240624481473E85056104
:103B800082803E858280B70700809387074B01477C
:103B90006314F50013075003FD5763D4E5020111C8
:103BA00006CE22CC2EC62A84EFF0AF9C3246AA85E0
:103BB000814622855135F240624481473E85056148
:103BC00082803E8582800111B707008006CE22CC1C
:103BD00026CA4AC84EC652C49387074B014763148E
:103BE000F50013075003FD546358E600328AAA8992
:103BF0002E848144014911E8F240624426854249FD
:103C0000D244B249224A05618280630B090085468D
:103C10005286CA854E850D35058933152501C98C17
:103C200005090580C9BF0111B707008006CE22CC67
:103C300026CA4AC84EC652C49387074B014763142D
:103C4000F50013075003FD546358E600328AAA8931
:103C50002E848144014911E8F2406244268542499C
:103C6000D244B249224A05618280630B0900814631
:103C70005286CA854E85C933058933152501C98CFD
:103C800005090580C9BF83A78187411122C406C6E3
:103C900081451385C18582972A84931714007D5529
:103CA00063DF0700635D04003705008013058507A7
:103CB0001374F403EF003065050433558502B240F8
:103CC000224441018280C1B783A78187411106C682
:103CD00091451385C18582979317150063DC070012
:103CE000635A0500B24037050080130505064101FF
:103CF0006F007061B2407D5541018280F1B713853C
:103D0000C185828021458280411122C42A84484194
:103D100006C6EF00105CB787001098479316F700AF
:103D200063D706009847C176FD16758F98C7378709
:103D300000101C47B7060200B725F400D58F1CC73A
:103D40001C40228593850540DC4382970844224429
:103D5000B24041016F00F057011106CE22CC26CAB5
:103D60002A844D372AC62285593F83A48187B245CC
:103D700082942A84B1451385C18582949317F400F7
:103D800063CC07006244F240D2443705008013053B
:103D9000450805616F0030579317E400AA8463C596
:103DA00007063705008013054508EF00D055931727
:103DB000D40063C60704935744008566938606C003
:103DC00093F7F703137774008507758C9306F03F1C
:103DD0000507860763FF86023345E5022980330520
:103DE000F50285473394870093F704103345850225
:103DF00099E793F4F4038504860433559502F24061
:103E00006244D24405618280370500801305C506EF
:103E100069BF7D55EDB7797122D426D24AD006D636
:103E20004ECE52CCAA842E8937840010E13D2A94CC
:103E30001C401397F700635707001C4041777D171C
:103E4000F98F1CC01C401397E700634D070237052C
:103E5000008013054508EF00104B0D473307E502BE
:103E600091463347D7026344E9029547B307F50209
:103E7000B3C7D70263CD27011C4037070400D98F91
:103E80001CC011AA370500801305C506E9B737170E
:103E90000120370800801307C7DFFD561348F8FFDD
:103EA00013063004FD551C47636AF5025C4763E75F
:103EB000A7021C4383284700B307F502B3D71703B3
:103EC000638EB700B387274193D8F741B3C7F80093
:103ED000B387174163D407013E88B2867D16011768
:103EE000E313B6FC1C40E38AC6F8E19B1CC0B7078D
:103EF000012096069387C759B697984B10401D8BA3
:103F0000518F18C018401377F7C018C0D84B144011
:103F100012071377073F558F18C01840FD76938618
:103F2000F63F758F18C0984F104085662A07938614
:103F300006C0758F518F18C0D84FB7870010635ACD
:103F40000706D84713670710D8C7D847137707FC69
:103F5000D8C7D84713671700D8C71C403707FCFFDE
:103F60007D17F98F1CC03000854513858184EFE0F3
:103F70007F932249B247130A490033392A013E99F7
:103F8000B2476367F90063932705A2476370FA0499
:103F90001C40E3DF07FE1C4041672685D98F1CC00B
:103FA000653BB250225492540259F249624A45612B
:103FB0008280D4471377F70393F6F6EFD4C7D4473C
:103FC00093F606FCD4C7D447558F79B730008545A2
:103FD00013858184EFE01F8D65B7B7870010BE950C
:103FE00088418280B7870010BE9590C1328582805B
:103FF00013878185B72701106303A7008147D84342
:104000000145D98DCCC3828013878185B7270110E4
:104010006303A7008147D84393C5F5FF0145F98D98
:10402000CCC38280938781856385A70081478843BD
:104030008280B7270110E5BF938781856385A7003C
:104040008147C8478280B7270110E5BF1387818564
:10405000B72701106303A7008147984793C5F5FF71
:104060000145F98D8CC7828013878185B7270110A0
:104070006303A700814798470145D98D8CC782808B
:1040800013878185B72701106303A7008147D847AD
:104090000145D98DCCC7828013878185B727011050
:1040A0006303A7008147D84793C5F5FF0145F98D04
:1040B000CCC7828013878185B72701106303A700CF
:1040C0008147D8470145B98DCCC782801387818548
:1040D000B72701106303A7008147D85F0145D98D39
:1040E000CCDF985F598E90DF828013878185B72758
:1040F00001106303A7008147985F93C5F5FF014551
:10410000F98D8CDF828013878185B72701106303C7
:10411000A70081471D47636CC702371701201307AB
:10412000C7E10A063A9618420287984F93C5F5FFF1
:104130006D8F98CF98536D8F98D398576D8F98D770
:10414000985BF98D8CDB21A0984FD98D8CCF0145E0
:104150008280984F4D8F98CF9853D98D8CD3C5BFFF
:104160009857D98D8CD7E5B7984F4D8F98CF9853E6
:104170004D8F98D398574D8F98D7985BD98DD9B7D5
:1041800013878185B72701106303A70081477D1638
:104190001947636DC700371701201307C7E30A06E5
:1041A0003A9618420287D84FD98DCCCF01458280EC
:1041B000D84F4D8FD8CFD853D98DCCD3C5BFD85772
:1041C000D98DCCD7E5B7D84F4D8FD8CFD8534D8F99
:1041D000D8D3D8574D8FD8D7D85BD98DCCDBF9B78A
:1041E000938781856384A70001458280370500801D
:1041F0001305054B8280938781856398A71021451D
:1042000063860510854725456382F5108947294552
:10421000638EF50E8D472D45638AF50E9147314526
:104220006386F50E954735456382F50E9947394506
:10423000638EF50C9D473D45638AF50CA1474145CA
:104240006386F50CA54745456382F50CA9474945AA
:10425000638EF50AAD474D45638AF50AB14751456E
:104260006386F50AB54755456382F50AB94759454E
:10427000638EF508BD475D45638AF508C147614512
:104280006386F508C54765456382F508C9476945F2
:10429000638EF506CD476D45638AF506D1477145B6
:1042A0006386F506D54775456382F506D947794596
:1042B000638EF504DD477D45638AF504E147130508
:1042C00000026385F504E547130510026380F504D9
:1042D000E94713052002638BF502ED471305300211
:1042E0006386F502F147130540026381F502F54745
:1042F0006D45638DF500F94771456389F500FD470C
:1043000001456395F5007545828001458280B707B8
:10431000008093878748376701106383A7000147B0
:1043200083470701898BEDFF82800C456F00900465
:1043300008458280011122CC26CA4EC652C456C2FC
:1043400006CE4AC8AA892E8AB284EF00D00B930AFF
:10435000150033B5AA003304B50083C709011389DA
:104360000901898B95EF060AB3E4440193F4F40F35
:1043700023869900930700F92300F900EF00B008A5
:104380009304150033B5A4003304B5008347090036
:10439000898B8DEB034509001D813305A04011A8D1
:1043A000EF0070066346B400E39985FAE3F7AAFAD2
:1043B0007D55F2406244D2444249B249224A924A6F
:1043C00005618280EF003004E344B4FEE39085FC95
:1043D000E3FEA4FAF1BF5D7137080080A2C486C66F
:1043E000A6C2CAC04EDE52DC56DA5AD85ED662D4B5
:1043F00066D26AD06ECE1308884801446314050162
:104400003764011015E17D59B64026444A8596442B
:104410000649F259625AD25A425BB25B225C925C04
:10442000025DF24D61618280484171DDBE893A8B47
:10443000368AB28BAE8AB9CE01462285E53D2A89FD
:1044400061F5814D414C130DFAFFB387BB0183C762
:1044500007002306F4006316BD0163940900130CE2
:10446000000523088401EF00007A13071500333597
:10447000A700930C0401B304B50083C70C00898B1B
:10448000ADE783C70C00E207E18763CB0706850D24
:10449000E31DBAFBE38A09F60546D6852285593D18
:1044A0002A893DF1014A930A0002938BF9FF639434
:1044B0004B01930A800623085401EF00C074930C4B
:1044C000150033B5AC00130C0401B304B5008347E9
:1044D0000C00898B85EB0347C400B3074B01050A29
:1044E0002380E700E39549FD05B73AC6EF00A071C8
:1044F000E3CBB4F03247E39295F8E370A7F821B725
:104500007D5949BF0927E3C0B4F0E39295FCE3F07D
:10451000ACFCD5BD7971B707008052CC06D622D449
:1045200026D24AD04ECE56CA5AC85EC662C466C2A9
:104530006AC093878748014A6314F500376A0110FF
:104540000DE1FD5BB25022545E8592540259F2494E
:10455000624AD24A424BB24B224C924C024D4561C8
:1045600082805C41F9DFB28A528505463A84368BF7
:10457000EFF05FDCAA8B79F51A0413740404014987
:1045800093090002138CFAFFE30E59FB63162C010A
:10459000B369340193E9890023083A01AD25130D6D
:1045A00015003335AD00930C0A01B304B50083C781
:1045B0000C00898B89EB0347CA00B3072B0105095F
:1045C0002380E700D1B78125E3CDB4F6E39195FED2
:1045D000E37FADFCBDB77971B70700804ECE06D63C
:1045E00022D426D24AD052CC56CA5AC85EC662C419
:1045F00066C26AC09387874881496314F500B7692A
:1046000001100DE1FD5AB2502254568592540259C0
:10461000F249624AD24A424BB24B224C924C024D72
:10462000456182805C41F9DF328A4E8501463A84D9
:10463000B68BEFF03FD0AA8A79F51A0413740404FC
:104640000149414B130CFAFFE30F49FBB3872B01E0
:1046500083C707002386F90063142C01336B6401C0
:10466000238869014D23130D15003335AD00938C5C
:104670000901B304B50083C70C00898B89EB83C79C
:104680000C00E207E187E3CF07F6050975BFA52B0C
:10469000E3CAB4F6E39195FEE37FADFCA5B7B70797
:1046A0000080938787486310F504411122C42A844F
:1046B00083A7818526C24AC0DC5306C6B2842E89F0
:1046C0000D66814513858185829785476397F40040
:1046D000CA852285452111E144C0B240224492445A
:1046E0000249410182808280B70700809387874812
:1046F000630CF5007D5582807D55F2406244D244C2
:104700004249B24905618280011122CC2A843705D1
:1047100000804AC8130905098327090006CE26CA66
:104720009C434EC613050509AE898297AA84B747F4
:104730000120032549009387E7305CC49305C4003A
:1047400000C875262322A900B74701200325890048
:104750009387A7321CCC40CC93058401492E232497
:10476000A90015453385A902C16733D5A4027D157B
:10477000E374F5F8B767011003C787001377F707ED
:104780002384E7001377F50F21852380E700137555
:10479000F50F2382A70003C78700014513670708A9
:1047A0002384E7002324340189BFB717008093874F
:1047B00087A8630DF50037170080130787AAB7375E
:1047C00002106303E50081473E858280B737011000
:1047D000E5BFB7170080938787A8630AF500B7176E
:1047E0000080938787AA6304F5000145828037051E
:1047F00000801305054B8280B7170080938787A838
:10480000630CF50037170080130787AA91476303ED
:10481000E50081473E8582808D47EDBF411106C688
:1048200069371C49B24093E717001CC90145410193
:104830008280411106C6953F1C49B240F99B1CC9B4
:10484000014541018280411106C685371C49B240AD
:1048500093E727001CC9014541018280411106C62A
:10486000A9371C49B240F59B1CC901454101828012
:10487000411106C61D3F0841B2407D814101828041
:10488000011106CE2EC61537B2451C453707070065
:10489000C205F240F98DDD8D0CC5014505618280B0
:1048A000411106C619370845B24041811D894101B1
:1048B0008280011106CE2EC6CD3DB2455C4537073C
:1048C0000700C205F240F98DDD8D4CC5014505613B
:1048D0008280411106C6D13D4845B24041811D89C3
:1048E00041018280411122C426C24AC006C62A89DB
:1048F000AE84653D2A844A85A53F75FD04C0B2405B
:104900002244924402494101828001112EC606CE02
:10491000693D5841B2459377F70F63530700FD5740
:10492000F2409CC1014505618280484182800111AD
:1049300026CA06CE22CCAA848D3DB7170080938765
:1049400087A8638DF404B7170080938787AA6387CD
:10495000F40481471845B706F9FFFD16758F18C591
:104960001845C166558F18C55849058B75DF9843A2
:1049700000453E8518430988133414000297250426
:104980003305A402C04002C633558502B24763CC4A
:10499000A700F2406244D24405618280B7070080DC
:1049A0009387070945BF0100B24785073EC6F9BF97
:1049B0004C4151A4B7170080938787A8630BF5007B
:1049C000B7170080938787AA6305F5004CC101459E
:1049D0008280411106C622C426C24AC02E84AA84FF
:1049E000EFF0BFDC2A893705008083270509C0C0A6
:1049F000130505099C43829733458502B240224442
:104A000092447D15232CA90083278900014593E753
:104A100017002324F9008327C90093E717002326F2
:104A2000F90002494101828001114AC8371900800A
:104A300022CC4EC606CE26CA130989A82A84AE897E
:104A400063092501B7170080938787AA8144631EF5
:104A5000F502B704008093840409C840B7570120C9
:104A60009387E7921CC49305840040C44920C8C0C2
:104A7000B757012088449387079B5CC800CC9305F7
:104A80004401B52088C493848185CE852285652222
:104A900095C837060300630B2401B717008093877E
:104AA00087AA370684006303F40001469C406244F1
:104AB000F2404249B24903A347022685D2448145C8
:104AC00005610283F2406244D2444249B249056121
:104AD0008280411122C406C62A8409E4B2402244DD
:104AE000410182801C40484082970044FDB723A4C6
:104AF0000500AA8701E52E858280BA87984775FF51
:104B00008CC7AA85CDBF1C4103A3070002830111F6
:104B100022CC2A84484106CE26CA2EC65D3F1C40C0
:104B2000B2452285DC438297AA8408445D37F2406F
:104B300062442685D244056182801C4103A307009C
:104B400002831C4103A3470002831C4103A3C70245
:104B5000028301E503A501888280014582807325D7
:104B600040F182801C4103A3070002831C4103A380
:104B7000470002831C4103A34701028301E503A50B
:104B800041888280014582800100FDBF797126D273
:104B90008A85AA84014506D622D44AD04ECE52CC6C
:104BA00056CADD2A01CD7D542285B250225492543A
:104BB0000259F249624AD24A456182802C00FD2A9C
:104BC0002A8475F12249B249024A924A4A86CE861F
:104BD0005285D685DD2988C0CCC04A86CE865285CE
:104BE000D685EF007004B7470F009387072433374B
:104BF000F5024A86CE86B385F5023305F502BA95ED
:104C0000E92188C455B7011181450A8506CEBD3F0B
:104C1000635605007D57FD573AC03EC2F24002453B
:104C20009245056182801C4103A3070002831C4159
:104C300003A3470002831C4103A347010283000032
:104C40000000000000000000000000000000000064
:104C50000000000000000000000000000000000054
:104C60000000000000000000000000000000000044
:104C70000000000000000000000000000000000034
:104C80006FE08F8F6FE04F8F6FE00F8F6FE06F914E
:104C90006FE08F8E6FE04F8E6FE00F8E6FE02F987A
:104CA0006FE08F8D6FE04F8D6FE00F8D6FE0CF8CD9
:104CB0006FE08F8C6FE04F8C6FE00F8C6FE0CF8BCD
:104CC0006FE0AF9D6FE02FA56FE0AFAC6FE02FB44A
:104CD0006FE0AFBB6FE02FC36FE0AFCA6FE02FD2C2
:104CE0006FE0AFD96FE02FE16FE0AFE86FE02FF03A
:104CF0006FE0AFF76FE02FFF6FE0BF866FE03F8E92
:104D0000B7070080938707066308F502B70700809E
:104D1000938787076307F502370700801307C709E2
:104D2000A1676309E500370700801307870A63035B
:104D3000E50081473E858280B727F40093870740CE
:104D4000D5BFB7A74A0493870720EDB7B707008000
:104D5000938707066308F502B707008093878707E4
:104D60006307F502370700801307C709A1676309C6
:104D7000E500370700801307870A6303E5008147D2
:104D80003E858280B727F40093870740D5BFB7A739
:104D90004A0493870720EDB7411122C406C62E842A
:104DA000EFF03FDB11C9EFF05FD908C04CC00145FF
:104DB000B2402244410182807D55DDBF411122C4B1
:104DC00006C62E84EFF0FFD811C9EFF09FD708C0B8
:104DD0004CC00145B2402244410182807D55DDBF77
:104DE000411106C6D128B240930780051CC17D55EC
:104DF00041018280411106C6C120B240930780FA6A
:104E00001CC17D55410182807D15133515008280BE
:104E1000411106C65520B240930780051CC17D553F
:104E200041018280411106C64128B24093078005A6
:104E30001CC17D5541018280411106C622C4938761
:104E400081D5138781556384E70293870189804365
:104E5000B306A40063FCE600AA85228594C3EFB0E4
:104E60004FA32285B24022444101828098C37D54E1
:104E7000CDBF411106C622C426C285476319F5007D
:104E80002E84B384C500631E9400014531A02D20FB
:104E9000930780051CC17D55B240224492444101D4
:104EA0008280034504000504EF00F015E9BFAA85E0
:104EB000814601460145D1A89387018488438280B9
:104EC000411122C406C697070000938707142A845D
:104ED00099C381450D2A9387418488431C5591C30A
:104EE00082972285EF001013411197B7FFFF938738
:104EF000673F22C417B4FFFF1304C43E1D8C26C2B3
:104F000006C60984BE8411E4B240224492444101A1
:104F100082807D1493172400A6979C438297E5B75F
:104F2000411197B7FFFF9387E73A22C417B4FFFFF9
:104F30001304443A1D8C26C24AC006C60984814423
:104F40003E896396840297B7FFFF9387A73817B40B
:104F5000FFFF130424381D8C098481443E89639F1C
:104F60008400B240224492440249410182809397D6
:104F70002400CA979C4385048297E1B79397240045
:104F8000CA979C4385048297D9BF9387018B9C4322
:104F90002A8E99EF1387C18B23A8E18A17B5FEDF0C
:104FA00013054506BA8709C51C4123A2F194BA87A7
:104FB000D8437D487D556347E804630E0E0203A87D
:104FC00087086301080493182700C29823A0C8002B
:104FD0000323081005463316E6003363C30023207D
:104FE000681023A0D80889466317DE00832648107E
:104FF000558E2322C810930617000A07D4C3BA9708
:105000008CC701458280797152CC56CA5AC85EC697
:1050100006D622D426D24AD04ECE62C42A8B2E8AFD
:10502000938A018B854B03A40A0011C8444083294D
:1050300084081389F4FF8A04A294635E0900B250C5
:10504000225492540259F249624AD24A424BB24B1C
:10505000224C45618280630E0A00639509007D1928
:10506000F114E1BF93172900CE9783A70708E398AF
:1050700047FF5840DC407D17631827032322240193
:10508000F9DF032C44006388090083A609103397D5
:105090002B01F98E89EE8297584083A70A00E3140A
:1050A00087F9E30EF4FA41B723A20400D1BF9316A7
:1050B0002900CE968C4283A64910758F01E75A8548
:1050C0008297D9BF2E858297C1BFAE873288368737
:1050D0002A836396062097C8FFFF9388A8E263FEA1
:1050E000C50A41676374E60A1307F00F3337C70038
:1050F0000E07B356E600B69883C6080036979306A7
:105100000002998E99CAB397D7003357E500331838
:10511000D600B365F7003313D5001355080133F7F4
:10512000A50213160801418293560301B3D5A502C7
:105130004207D98EB307B6022E8763FCF600C296EB
:105140001387F5FF63E7060163F5F6001387E5FFB4
:10515000C2969D8EB3F7A602420313530301B3D642
:10516000A602C20733E36700B305D6023685637B28
:10517000B30042931385F6FF636603016374B300C3
:105180001385E6FF4207498F81454DA8B706000108
:105190004147E360D6F66147A9BF01E6854633D8AB
:1051A000C602C166637ED8089306F00F63F306015A
:1051B0002147B356E800B69883C60800BA9613078D
:1051C0000002158F49E7B38707418545135608014B
:1051D0009318080193D808019356030133F7C702C7
:1051E000B3D7C7024207D98E3385F8023E8763FCE6
:1051F000A600C2961387F7FF63E7060163F5A600D2
:105200001387E7FFC296898EB3F7C6024203135392
:105210000301B3D6C602C20733E36700B388D802DE
:105220003685637B130142931385F6FF63660301A2
:10523000637413011385E6FF4207498F3A85828024
:10524000B70600014147E366D8F661479DB73318BA
:10525000E800B3D5D7003313E500B356D500135596
:105260000801B397E70033F7A502B3E8F6009317F8
:105270000801C18313D60801B3D5A5024207518F97
:10528000B386B7022E86637CD70042971386F5FF5C
:10529000636707016375D7001386E5FF4297B3067E
:1052A000D74033F7A602C20893D80801B3D6A602A6
:1052B0004207B385D702B3671701368763FCB7008F
:1052C000C2971387F6FF63E7070163F5B7001387FB
:1052D000E6FFC2978D8F93150601D98DC5BD63E298
:1052E000D514416763FEE6021308F00F3337D80088
:1052F0000E0733D8E60097C5FFFF9385A5C0C2957A
:1053000003C80500930500023A98B385054185E17D
:105310000547E3E5F6F23335C5001347150039BFFD
:10532000B70500014147E3E6B6FC6147D9B73357FB
:105330000601B396B600D98E93DE060133D7070176
:10534000B378D703B397B700335805013363F80038
:1053500093970601C183135803013316B6003357E0
:10536000D703C20833E80801338FE7023A8E637C23
:10537000E8013698130EF7FF6367D8006375E801FC
:10538000130EE7FF36983308E841B378D803335853
:10539000D803C208B38E070393170301C183B3E791
:1053A000F800428763FCD701B6971307F8FF63E75D
:1053B000D70063F5D7011307E8FFB697420EB3870E
:1053C000D741C16E3367EE001388FEFF33730701C8
:1053D00093580701337806014182330E0303338863
:1053E000080393560E013303C30242939A96B3887F
:1053F000C80263F30601F69813D60601B29863E07B
:105400001703E39317D9C167FD17FD8EC206337EDC
:10541000FE003315B500F2968145E371D5E27D17A4
:10542000A5B38145014719BDB2883687AA872E8862
:105430006398061C97C6FFFF9386C6AC63F8C50A3F
:105440004163637E66081303F00F6373C300214753
:105450003353E6009A9603CE0600130300023A9EE9
:105460003303C341630C0300B3956500335EC5018C
:10547000B31866003368BE00B317650013D6080181
:105480003377C80213950801418193D60701335839
:10549000C8024207D98E3308050363F80601C69691
:1054A00063E5160163F30601C696B386064133F73A
:1054B000C602C207C183B3D6C602B306D50213150E
:1054C0000701C98F63F8D700C69763E5170163F337
:1054D000D700C697958F33D5670081458280370303
:1054E00000014147E36666F661479DB701E6054660
:1054F000B3581603416663F3C8081306F00F6373CD
:105500001601214733D6E800B29603CE06001303F6
:1055100000023A9E3303C34163190306B385154164
:1055200013D7080113950801418113D60701B3F67B
:10553000E502B3D5E502C206D18EB305B50263F824
:10554000B600C69663E5160163F3B600C696B3854A
:10555000B640B3F6E502C207C183B3D5E502B30591
:10556000B50213950601C98F63F8B700C69763E5C6
:10557000170163F3B700C6978D8FB1BF37060001DF
:105580004147E3E1C8F86147B5BFB398680033D736
:10559000C501B3176500335EC50113D50801B376A5
:1055A000A702B3956500336EBE0093950801C181D3
:1055B00013560E013357A702C206D18E3387E50278
:1055C00063F8E600C69663E5160163F3E600C69647
:1055D0003386E640B376A602420E135E0E013356C2
:1055E000A602C2063386C502B3E5C60163F8C5004C
:1055F000C69563E5150163F3C500C695918D0DB79A
:10560000E3EED5EC416763F5E604930EF00F33B794
:10561000DE000E0733D3E60097C8FFFF9388888E1D
:105620009A9883CE0800130E0002BA9E330EDE4114
:1056300063170E0263E4B6006369C500B307C54093
:10564000958D3335F5003388A5403E85C28579B503
:10565000B70800014147E3EF16FB614765BF3357C9
:10566000D601B396C601D98E13D8060133D7D5011A
:1056700033730703B395C501B357D501CD8F939508
:105680000601C18193D807013316C6013315C50140
:10569000335707034203B3681301338FE5023A839C
:1056A00063FCE801B6981303F7FF63E7D80063F5DE
:1056B000E8011303E7FFB698B388E84133FF080316
:1056C000B3D80803420F3388150393950701C181AE
:1056D000B365BF00C68763FC0501B6959387F8FFE5
:1056E00063E7D50063F505019387E8FFB6954203AC
:1056F000416F3363F3009307FFFFB378F300B38583
:1057000005411353030113580601F18F3387F80243
:10571000B307F302B388080333030303BE98135897
:10572000070146986373F8007A93935708013E93F4
:10573000C167FD173378F80042087D8F429763E612
:105740006500639C6500637AE5003306C740333724
:10575000C70036973303E34032873307E5403335DC
:10576000E500B3856540898DB397D5013357C701EF
:1057700033E5E700B3D5C50195B39387818B984393
:1057800015EF411122C426C23704012006C6054781
:10579000B704012098C39384C42D9307042D1304E8
:1057A000042D63EA9700B240224492444101828072
:1057B0001C4011048297E31D94FEF5B78280938705
:1057C000418B984315EF411122C426C237040120B2
:1057D00006C60547B704012098C39384042E930797
:1057E000042E1304042E63EA9700B240224492442C
:1057F000410182801C4011048297E31D94FEF5B79D
:105800008280A5BF6DBFAA8537150080130585A8C6
:0C5810006FF0EFC1411106C6EFF00FB7BA
:1058200000000000A4030120C40301208403012020
:105830000000000000000000000000000000000068
:105840000000000000000000000000000000000058
:105850000000000000000000000000000000000048
:105860000000000000000000000000000000000038
:105870000000000000000000000000000000000028
:10588000500B00800000000000000000380B00807A
:105890000000000000000000500B0080000000002D
:1058A00000000000300B008000000000000000003D
:1058B000940501200000000000000000500B008053
:1058C0000000000000000000500B008000000000FD
:1058D0000000000000000000C804012000000000DB
:1058E00000000000000000000000000000000000B8
:1058F00000000000000000000000000000000000A8
:105900000000000000000000000000000000000097
:105910000000000000000000000000000000000087
:105CA0000000000000000000940E01200000000031
:105CB00000000000000000000000000000000000E4
:105CC00000000000000000000000000000000000D4
:105CD0002C05012000000000000000000000000072
:105CE00000000000000000000000000000000000B4
:105CF00000000000000000000000000000000000A4
:105D00000000000000000000000000000000000093
:105D10000000000000000000000000000000000083
:1062A0000000000000000000AC0E01200000000013
:1062B00000000000000000000000000000000000DE
:1062C0000000000000000000AC0E012000000000F3
:1062D00000000000000000000000000000000000BE
:1062E0000000000000000000040E0E0E1F0004005D
:1062F000000103161C080000000E1517110E000007
:10630000001B0E040E1B0000000C1D0F0F060000EA
:10631000000A1F1F0E0400000203020E1E0C0000E4
:10632000010105091F080400000000800000008032
:10633000200401200000000084040120000000006F
:10634000580E0120400B0080180B00800103040050
:10635000863C0120C63C0120C83C0120FC3C0120B9
:10636000DA3F0120E43F0120180B00808804008000
:0C637000004D01204C4D01202010008049
:0400000520010000D6
:00000001FF
